{
  "contractName": "Token",
  "abi": [
    {
      "constant": false,
      "inputs": [],
      "name": "getContractAdr",
      "outputs": [
        {
          "internalType": "bool",
          "name": "",
          "type": "bool"
        }
      ],
      "payable": false,
      "stateMutability": "nonpayable",
      "type": "function"
    }
  ],
  "bytecode": "0x6080604052348015600f57600080fd5b50608b8061001e6000396000f3fe6080604052348015600f57600080fd5b506004361060285760003560e01c8063aa08eb2414602d575b600080fd5b6033604d565b604051808215151515815260200191505060405180910390f35b6000600190509056fea265627a7a72315820ef242ceedc0a14192d86f993141c34e28b7adba701a2bcc8f6c931d8926c75b064736f6c63430005100032",
  "source": "// SPDX-License-Identifier: MIT\npragma solidity >=0.4.22 <0.9.0;\n\ncontract Token {\n    function getContractAdr() public returns (bool) {\n        return true;\n    }\n}\n",
  "sourcePath": "/Users/vladcirstean/Documents/school/ethereum-freelancing-portal/contracts/Token.sol",
  "compiler": {
    "name": "solc",
    "version": "0.5.16+commit.9c3226ce.Emscripten.clang"
  },
  "schemaVersion": "3.3.3",
  "updatedAt": "2021-01-17T17:58:13.165Z",
  "networkType": "ethereum",
  "devdoc": {
    "methods": {}
  },
  "userdoc": {
    "methods": {}
  }
}